{
  "contractName": "MultiplicationOperation",
  "abi": [
    {
      "inputs": [
        {
          "internalType": "int256",
          "name": "a",
          "type": "int256"
        },
        {
          "internalType": "int256",
          "name": "b",
          "type": "int256"
        }
      ],
      "name": "calculate",
      "outputs": [
        {
          "internalType": "int256",
          "name": "",
          "type": "int256"
        }
      ],
      "stateMutability": "pure",
      "type": "function",
      "constant": true
    }
  ],
  "bytecode": "0x608060405234801561000f575f80fd5b506101f88061001d5f395ff3fe608060405234801561000f575f80fd5b5060043610610029575f3560e01c8063799e6f021461002d575b5f80fd5b610047600480360381019061004291906100b9565b61005d565b6040516100549190610106565b60405180910390f35b5f80820361006d575f905061007c565b8183610079919061014c565b90505b92915050565b5f80fd5b5f819050919050565b61009881610086565b81146100a2575f80fd5b50565b5f813590506100b38161008f565b92915050565b5f80604083850312156100cf576100ce610082565b5b5f6100dc858286016100a5565b92505060206100ed858286016100a5565b9150509250929050565b61010081610086565b82525050565b5f6020820190506101195f8301846100f7565b92915050565b7f4e487b71000000000000000000000000000000000000000000000000000000005f52601160045260245ffd5b5f61015682610086565b915061016183610086565b925082820261016f81610086565b91507f800000000000000000000000000000000000000000000000000000000000000084145f841216156101a6576101a561011f565b5b82820584148315176101bb576101ba61011f565b5b509291505056fea264697066735822122031fcc830c24e41cd45a4886d07ca6e6417889ce4c9c7342eef3efb8064fe16c964736f6c63430008150033",
  "immutableReferences": {},
  "source": "// SPDX-License-Identifier: MIT\r\npragma solidity ^0.8.0;\r\n\r\nimport \"./Calculator.sol\";\r\n\r\n/// @title Multiplication Operation Implementation\r\n/// @notice This contract implements multiplication operation by overriding calculate function defined in the Calculator abstract contract.\r\ncontract MultiplicationOperation is Calculator {\r\n\r\n    /// @inheritdoc Calculator\r\n    function calculate(int256 a, int256 b) public pure override returns (int256) {\r\n        if (b == 0){\r\n            return 0;\r\n        }\r\n        else{\r\n        return a * b;\r\n        }\r\n    }\r\n}",
  "sourcePath": "C:\\Users\\ANJALI LAPTOP\\Desktop\\Calculator_DAPP\\contracts\\Multiplication.sol",
  "compiler": {
    "name": "solc",
    "version": "0.8.21+commit.d9974bed.Emscripten.clang"
  },
  "schemaVersion": "3.4.16",
  "updatedAt": "2024-09-25T09:01:46.226Z",
  "networkType": "ethereum",
  "devdoc": {
    "kind": "dev",
    "methods": {},
    "title": "Multiplication Operation Implementation",
    "version": 1
  },
  "userdoc": {
    "kind": "user",
    "methods": {
      "calculate(int256,int256)": {
        "notice": "Performs any operation on two integers."
      }
    },
    "notice": "This contract implements multiplication operation by overriding calculate function defined in the Calculator abstract contract.",
    "version": 1
  }
}