{
  "contractName": "SubtractionOperation",
  "abi": [
    {
      "inputs": [
        {
          "internalType": "int256",
          "name": "a",
          "type": "int256"
        },
        {
          "internalType": "int256",
          "name": "b",
          "type": "int256"
        }
      ],
      "name": "calculate",
      "outputs": [
        {
          "internalType": "int256",
          "name": "",
          "type": "int256"
        }
      ],
      "stateMutability": "pure",
      "type": "function",
      "constant": true
    }
  ],
  "bytecode": "0x608060405234801561000f575f80fd5b506101b28061001d5f395ff3fe608060405234801561000f575f80fd5b5060043610610029575f3560e01c8063799e6f021461002d575b5f80fd5b610047600480360381019061004291906100a9565b61005d565b60405161005491906100f6565b60405180910390f35b5f818361006a919061013c565b905092915050565b5f80fd5b5f819050919050565b61008881610076565b8114610092575f80fd5b50565b5f813590506100a38161007f565b92915050565b5f80604083850312156100bf576100be610072565b5b5f6100cc85828601610095565b92505060206100dd85828601610095565b9150509250929050565b6100f081610076565b82525050565b5f6020820190506101095f8301846100e7565b92915050565b7f4e487b71000000000000000000000000000000000000000000000000000000005f52601160045260245ffd5b5f61014682610076565b915061015183610076565b925082820390508181125f8412168282135f8512151617156101765761017561010f565b5b9291505056fea2646970667358221220f1fb1856b9bf7eca74ef0d534c9911cf88b4afe703167169f2885aec26bb8aa564736f6c63430008150033",
  "immutableReferences": {},
  "source": "// SPDX-License-Identifier: MIT\r\npragma solidity ^0.8.0;\r\n\r\nimport \"./Calculator.sol\";\r\n\r\n/// @title Subtraction Operation Implementation\r\n/// @notice This contract implements subtraction operation by overriding calculate function defined in the Calculator abstract contract.\r\ncontract SubtractionOperation is Calculator {\r\n\r\n    /// @inheritdoc Calculator\r\n    function calculate(int256 a, int256 b) public pure override returns (int256) {\r\n        return a - b;\r\n    }\r\n}",
  "sourcePath": "C:\\Users\\ANJALI LAPTOP\\Desktop\\Calculator_DAPP\\contracts\\Subtraction.sol",
  "compiler": {
    "name": "solc",
    "version": "0.8.21+commit.d9974bed.Emscripten.clang"
  },
  "schemaVersion": "3.4.16",
  "updatedAt": "2024-09-30T15:09:11.530Z",
  "networkType": "ethereum",
  "devdoc": {
    "kind": "dev",
    "methods": {},
    "title": "Subtraction Operation Implementation",
    "version": 1
  },
  "userdoc": {
    "kind": "user",
    "methods": {
      "calculate(int256,int256)": {
        "notice": "Performs any operation on two integers."
      }
    },
    "notice": "This contract implements subtraction operation by overriding calculate function defined in the Calculator abstract contract.",
    "version": 1
  }
}